:100000000C9463000C948B000C948B000C94F10AFC
:100010000C94F10A0C94F10A0C948B000C94900B44
:100020000C948B000C948B000C948B000C948B0024
:100030000C948B000C94690B0C948B000C948B002B
:100040000C94A70A0C948B000C94750A0C944F0A1C
:100050000C948B000C948B000C948B000C948B00F4
:100060000C94650C0C948B00000000002400270009
:100070002A0000000008000201000003040700003D
:1000800000000000000000000000230026002900FE
:1000900000000000250028002B00040404040404D0
:1000A0000404020202020202030303030303010227
:1000B00004081020408001020408102001020408F6
:1000C0001020840D011C11241FBECFEFD8E0DEBF2D
:1000D000CDBF25E0A4E8B2E001C01D92A037B20771
:1000E000E1F712E0A0E0B1E0E0EDFDE302C0059031
:1000F0000D92A438B107D9F710E0C2E6D0E004C0F1
:100100002197FE010E94B81CC136D107C9F70E9491
:100110005F0E0C94DB1E0C940000AF92BF92CF9246
:10012000DF92EF92FF920F931F93CF93DF937C01A7
:100130006B015A01FC01808191812091440530912D
:100140004505C1E0D0E08217930708F062C09C012A
:10015000220F331FE0914205F0914305E20FF31F98
:1001600000811181EC01C095D095C170DD272CE98B
:100170003FEF80FF02C024E630E02A0D3B1DC9019D
:1001800063E470E00E94A41C0617170754F0C9012D
:1001900068E270E00E94A41C6F5F7F4F60177107D8
:1001A0006CF52A0D3B1DC90163E470E00E94A41C9C
:1001B0000617170754F0C90168E270E00E94A41CFA
:1001C0006F5F7F4F6017710784F52A0D3B1DC901D2
:1001D00063E470E00E94A41C0617170764F0C901CD
:1001E00068E270E00E94A41C6F5F7F4F23E030E064
:1001F000601771072CF4CFEFDFEF0BC021E030E088
:10020000F601808191810196821793078CF4918386
:100210008083CE01DF91CF911F910F91FF90EF90DE
:10022000DF90CF90BF90AF90089522E030E0E8CF0C
:1002300011821082F701808191810196E8CF20918F
:100240004B0530914C058217930760F420914705C8
:10025000309148052115310529F0280F391FF90182
:100260008081089580E008958091A7039091A8036C
:1002700001969093A8038093A70308950895089585
:100280000895AF92BF92CF92DF92EF92FF920F93B9
:100290001F93CF93DF936C017B018B01040F151F1C
:1002A000EB015E01AE18BF08C017D10759F0699184
:1002B000D601ED91FC910190F081E02DC6010995E8
:1002C000892B79F7C501DF91CF911F910F91FF9095
:1002D000EF90DF90CF90BF90AF900895FC01538DC9
:1002E000448D252F30E0842F90E0821B930B541710
:1002F00010F0CF96089501970895FC01918D828D9D
:10030000981761F0A28DAE0FBF2FB11D5D968C9135
:10031000928D9F5F9F73928F90E008958FEF9FEF74
:100320000895FC01918D828D981731F0828DE80F30
:10033000F11D858D90E008958FEF9FEF0895FC01EA
:10034000918D228D892F90E0805C9F4F821B9109B7
:100350008F73992708958DEA93E00E949F0121E011
:10036000892B09F420E0822F089580E090E0892B0A
:1003700029F00E94AB0181110C9400000895FC014A
:10038000A48DA80FB92FB11DA35ABF4F2C91848DF6
:1003900090E001968F739927848FA689B7892C9353
:1003A000A089B1898C91837080648C93938D848DA6
:1003B000981306C00288F389E02D80818F7D8083A9
:1003C0000895EF92FF920F931F93CF93DF93EC0169
:1003D00081E0888F9B8D8C8D98131AC0E889F989EC
:1003E000808185FF15C09FB7F894EE89FF896083EF
:1003F000E889F98980818370806480839FBF81E070
:1004000090E0DF91CF911F910F91FF90EF900895B1
:10041000F62E0B8D10E00F5F1F4F0F731127E02E8C
:100420008C8D8E110CC00FB607FCFACFE889F989C4
:10043000808185FFF5CFCE010E94BF01F1CFEB8D0A
:10044000EC0FFD2FF11DE35AFF4FF0829FB7F89498
:100450000B8FEA89FB8980818062CFCFCF93DF93B6
:10046000EC01888D8823B9F0AA89BB89E889F989CC
:100470008C9185FD03C0808186FD0DC00FB607FC01
:10048000F7CF8C9185FFF2CF808185FFEDCFCE0134
:100490000E94BF01E9CFDF91CF910895833081F0B1
:1004A00028F4813099F08230A9F008958730A9F0BE
:1004B0008830C9F08430B1F4809180008F7D03C012
:1004C000809180008F7780938000089584B58F7726
:1004D00084BD089584B58F7DFBCF8091B0008F7768
:1004E0008093B00008958091B0008F7DF9CF1F9365
:1004F000CF93DF93282F30E0F901EE58FF4F84911E
:10050000F901E255FF4FD491F901E656FF4FC4912E
:10051000CC23A9F0162F81110E944E02EC2FF0E09F
:10052000EE0FFF1FE057FF4FA591B4918FB7F894DE
:10053000EC91111108C0D095DE23DC938FBFDF91C1
:10054000CF911F910895DE2BF8CFCF93DF9390E0EA
:10055000FC01E255FF4F249186569F4FFC01849188
:100560008823D1F090E0880F991FFC01E859FF4FD4
:10057000A591B491FC01E057FF4FC591D491611151
:100580000EC09FB7F8948C91E22FE0958E238C9348
:100590002881E223E8839FBFDF91CF9108958FB731
:1005A000F894EC91E22BEC938FBFF6CF3FB7F89421
:1005B0008091790390917A03A0917B03B0917C03A1
:1005C00026B5A89B05C02F3F19F00196A11DB11DAE
:1005D0003FBFBA2FA92F982F8827BC01CD01620FEA
:1005E000711D811D911D42E0660F771F881F991FA5
:1005F0004A95D1F708958F929F92AF92BF92CF9272
:10060000DF92EF92FF924B015C010E94D6026B01D8
:100610007C010E94D6026C197D098E099F09683EF3
:10062000734081059105A8F321E0821A9108A10881
:10063000B10888EEC80E83E0D81EE11CF11C8114BD
:100640009104A104B10429F7FF90EF90DF90CF90BF
:10065000BF90AF909F908F90089520918703309125
:1006600088032817390771F49091850380918603D8
:10067000981741F0E0918503F0E0E85CFC4F808141
:1006800090E008958FEF9FEF08950895EF92FF9205
:100690000F931F93CF93DF93DC015C96ED90FC905A
:1006A0005D97E114F10479F481E090E013969C9356
:1006B0008E93129790E080E0DF91CF911F910F9180
:1006C000FF90EF9008955196ED91FC9152975096BE
:1006D0008C915097982F90950FB75E962C915E97BE
:1006E000122F127021FD6095F8942081112319F1C9
:1006F000282B2083E7012197F1F728E0462F50E0CF
:10070000308160FF1AC0382B3083E7012197F1F761
:10071000BA0175956795215089F7112381F0808181
:10072000892380830FBF5C968D919C910197F1F78F
:1007300081E090E0C1CF2923DCCF3923E5CF908140
:10074000892BEFCF20918703309188032817390731
:1007500071F4809186032091850390E0805C9F4F27
:10076000821B910960E470E00E94A41C089590E04F
:1007700080E0089520918703309188032817390776
:10078000B9F49091850380918603981789F0E091E0
:100790008503F0E0E85CFC4F80812091850330E028
:1007A0002F5F3F4F2F7333272093850390E00895E9
:1007B0008FEF9FEF08952FB7F8948091A903909140
:1007C000AA03A091AB03B091AC032FBF8093550552
:1007D00090935605A0935705B09358058DE495E086
:1007E0000E94BA0397FF26C02FB7F8948091A903FF
:1007F0009091AA03A091AB03B091AC032FBF40919D
:100800005505509156056091570570915805841B08
:10081000950BA60BB70B4091510550915205609175
:1008200053057091540584179507A607B707B0F2D2
:100830008FEF9FEF08952091C702260F3327331FB4
:1008400021323105ECF420911003FC0190E080E0AE
:10085000243069F082E00895A091C7022191AC0193
:1008600049555D4FA40FB52FB11D2C9301968617E6
:1008700098F38091C702680F6093C70280E00895E3
:1008800081E008951092100381E080930F0310928D
:10089000EA0261E082E10E94770261E083E10E9466
:1008A0007702E9EBF0E080818E7F808380818D7F0D
:1008B000808388E48093B80085E48093BC00089529
:1008C000CF93DF9391E09093A6028823B9F0C09173
:1008D000B800D091BA008091BC008A7B8093BC00A4
:1008E00060E082E10E94770260E083E10E9477028B
:1008F0000E944204D093BA00C093B800DF91CF9118
:100900000895E091840380918303E81730F4F0E0C8
:10091000EA57FD4F808190E008958FEF9FEF089593
:1009200090918403809183032FEF3FEF981748F451
:10093000E92FF0E0EA57FD4F208130E09F5F909370
:100940008403C90108958091830390918403891BD6
:10095000990B0895CF92DF92EF92FF920F931F931E
:10096000CF93DF937C01CB018A01209116032223D0
:1009700089F0EB016B01C40ED51ECC15DD0569F0C5
:100980006991D701ED91FC910190F081E02DC701B3
:100990000995F3CF642F0E941B04C801DF91CF910A
:1009A0001F910F91FF90EF90DF90CF900895CF931C
:1009B000DF931F92CDB7DEB7698320911603222300
:1009C000F9F020918103203258F021E030E0FC0161
:1009D0003383228390E080E00F90DF91CF910895E0
:1009E00080918203E82FF0E0E95EFC4F99819083CB
:1009F0008F5F809382038093810381E090E0ECCF4E
:100A000061E0CE0101960E941B04F7CFCF92DF92E6
:100A1000EF92FF920F931F93CF93DF93FC01C4815A
:100A200021E020931603C0933703109282031092A3
:100A300081038385682B8AE494E00E94D704D091D7
:100A40008103D13208F092C00E94D6026B017C0172
:100A500080911003811165C082E08093100381E0D2
:100A600080930F038FEF80930E0310920D03D093AA
:100A70000C03A7E1B3E0ECEEF2E080E0D81385C010
:100A80001092EB028091EB02CC0FC82BC093EB02CB
:100A90008091EA02813009F07CC01092EA020E9443
:100AA000D6026B017C018091EB028093BB008091A8
:100AB000120390911303A0911403B0911503892B95
:100AC0008A2B8B2B99F00E94D60200911203109171
:100AD000130320911403309115036C197D098E09BD
:100AE0009F090617170728073907E0F18091BC0016
:100AF00083FDD9CF85EC8093BC000E94D6026B01A8
:100B00007C0180911003823009F445C080910E036E
:100B10008F3F61F180910E03803241F180910E038D
:100B200025C08091120390911303A0911403B091FA
:100B30001503892B8A2B8B2B09F48ACF0E94D602AE
:100B400000911203109113032091140330911503A7
:100B50006C197D098E099F090617170728073907A1
:100B600008F076CF809111030E94600410928203F6
:100B70001092810310921603DF91CF911F910F9174
:100B8000FF90EF90DF90CF9008959D9191938F5FAC
:100B900075CF85EEB0CF8091120390911303A09191
:100BA0001403B0911503892B8A2B8B2B09F4A9CF41
:100BB0000E94D60200911203109113032091140396
:100BC000309115036C197D098E099F0906171707C7
:100BD0002807390708F095CFC5CF90E080E0089549
:100BE0004F925F926F927F928F929F92AF92BF923D
:100BF000CF92DF92EF92FF920F931F93CF93DF93E9
:100C0000F82FE62FC0904205D09043054A0184E6B4
:100C1000880E911C83E4E82EF12CC401B7010E94D8
:100C2000A41C5B01C8E2D0E0C401BE010E94A41C68
:100C30002B018FEF481A580A24563109C901B70110
:100C40000E94A41C4B01C901BE010E94A41C3B01CF
:100C50008FEF681A780A04561109C801B7010E947B
:100C6000A41C9B01C801BE010E94A41CAB014F5FE4
:100C70005F4FFF0FFE0F60E070E0CB01AE2FB0E0E2
:100C8000AA0FBB1FAC0DBD1D0D90BC91A02DAA15C8
:100C9000BB057CF14A165B0664F1A1E0AE0FB0E043
:100CA000AA0FBB1FAC0DBD1D0D90BC91A02DA815AA
:100CB000B905E4F06A167B0604F1660F771F881FFA
:100CC000991F6160EE5FFE13D9CFDF91CF911F9125
:100CD0000F91FF90EF90DF90CF90BF90AF909F90DB
:100CE0008F907F906F905F904F900895A217B307F9
:100CF00024F460E070E0CB01E8CF4A175B07CCF347
:100D0000660F771F881F991FDDCF0F931F93CF9317
:100D10008C01C62F0E9406056C2F6460C8010E94DA
:100D200006056C2F6B7FC8010E94060583EC90E0DE
:100D30000197F1F7CF911F910F9108950F931F9392
:100D4000CF93DF938C01D62FC42F607F642B0E943A
:100D5000850680E1D89FB00111246C2BC801DF917A
:100D6000CF911F910F910C948506CF93DF93CDB750
:100D7000DEB728970FB6F894DEBF0FBECDBF98E060
:100D8000E5E1F1E0DE01119601900D929A95E1F70F
:100D900090913105961710F46FEF690F262F30E010
:100DA000220F331F41E050E04C0F5D1F240F351F11
:100DB000F9016081680F606840E089E295E028965B
:100DC0000FB6F894DEBF0FBECDBFDF91CF910C946C
:100DD0009E0641E00E949E0681E090E00895CF9338
:100DE000DF93EC0180914705909148050097E9F069
:100DF0006881798161157105B1F040914905509183
:100E00004A052C813D814217530768F00E94C61E97
:100E10008C819D8190934C0580934B051D821C8293
:100E2000DF91CF9108950E946E1D888199819093E2
:100E30004805809347058A819B8190934A0580935A
:100E400049058C819D8190934C0580934B051982B7
:100E500018821B821A82E2CFCF93DF93EC01888144
:100E60009981009711F00E946E1D198218821D82CF
:100E70001C821B821A82DF91CF910895FC01808130
:100E80009181009711F00C946E1D0895FC0144812E
:100E9000558180914B0590914C058417950780F002
:100EA0008091470590914805009751F060817181CC
:100EB0006115710529F00E94CD1E21E0892B09F0F2
:100EC00020E0822F0895FB0101900020E9F731977F
:100ED000AF01461B570BDC01ED91FC910280F381C1
:100EE000E02D09948F929F92AF92BF92EF92FF9262
:100EF0000F931F93CF93DF93CDB7DEB7A1970FB6B4
:100F0000F894DEBF0FBECDBF7C01FA01CB0119A260
:100F1000223008F42AE08E010F5D1F4F822E912CA3
:100F2000B12CA12CBF01A50194010E94311CF90133
:100F3000CA016A300CF5605DD8016E938D01232BD8
:100F4000242B252B79F790E080E0109721F0BD014C
:100F5000C7010E946307A1960FB6F894DEBF0FBECB
:100F6000CDBFDF91CF911F910F91FF90EF90BF9078
:100F7000AF909F908F900895695CDECFBC0189E2AD
:100F800095E00C946307CF92DF92EF92FF926B0192
:100F900061E00E94B5068AE0C816D10424F48FE50A
:100FA00091E00E94BE070D2C000CEE08FF082AE01D
:100FB000B701A601F7FE0EC041E06DE289E295E0BF
:100FC0000E949E0644275527BA014C195D096E09F7
:100FD0007F092AE089E295E0FF90EF90DF90CF90C3
:100FE0000C94720701978730910590F5FC01E3504E
:100FF000F84F61E089E00C94B81C04080A080F0857
:10100000140819081E0823080E94B50681E691E01D
:101010000C94BE070E94B50688E691E0F9CF0E94C5
:10102000B50680E791E0F4CF0E94B50687E791E02E
:10103000EFCF0E94B5068FE791E0EACF0E94B50698
:1010400086E891E0E5CF0E94B5068DE891E0E0CF1B
:1010500061E089E00E94B50684E991E0D9CF609112
:101060009F037091A00386E090E00E94C307609107
:1010700005017091060183E090E00E94C307609132
:1010800003017091040190E080E00E94C30761E0D9
:1010900082E00E94B5068BE991E00E94BE0761E004
:1010A00085E00E94B5068BE991E00E94BE07809121
:1010B0000101909102010C94F2076091A5037091D7
:1010C000A60386E090E00E94C30760910D01709135
:1010D0000E0183E090E00E94C30760910B017091C4
:1010E0000C0190E080E00E94C30761E082E00E9472
:1010F000B5068BE991E00E94BE0761E085E00E94A1
:10110000B5068BE991E00E94BE078091090190919C
:101110000A010C94F2078091A7039091A803CC9741
:1011200084F01092A8031092A7038091A3039091DA
:10113000A40301968C33910594F59093A4038093B6
:10114000A3036091A7037091A80386E090E00E943A
:10115000C3076091A3037091A40383E090E00E9411
:10116000C3076091A1037091A20390E080E00E9408
:10117000C30761E082E00E94B5068BE991E00E941E
:10118000BE0761E085E00E94B5068BE991E00E9410
:10119000BE0780910701909108010C94F20710920C
:1011A000A4031092A3038091A1039091A20301963E
:1011B000883191052CF49093A2038093A103C1CFB1
:1011C0001092A2031092A10380910701909108014F
:1011D000019667E070E00E94A41C90930801809340
:1011E0000701AFCF809184029091850260E0892B46
:1011F00039F480E00E94B5068DE991E00C94BE07B9
:1012000080E00E94B50680EB91E0F8CFCF93DF93AA
:10121000BC018DEA93E00E946307EC0164EC71E08D
:101220008DEA93E00E9463078C0F9D1FDF91CF91A1
:1012300008950F931F93CF93DF93EC0188819981D9
:10124000009759F02A813B812617370730F081E05B
:10125000DF91CF911F910F9108958B016F5F7F4FA9
:101260000E94F71D009759F0998388831B830A8396
:101270002C813D81232B59F7FC011082E8CF80E0BF
:10128000E7CFEF92FF920F931F93CF93DF938C01E1
:101290007B01EB0109900020E9F72197C61BD70BD2
:1012A000BE010E941909811109C0C801DF91CF91C7
:1012B0001F910F91FF90EF900C942C07F801D583AC
:1012C000C483B70180819181DF91CF911F910F91EC
:1012D000FF90EF900C94C61E61E087E00E947702B9
:1012E00060E080E00E94B50680EB91E00E94BE07BE
:1012F00066EC71E087E495E00E94410981E090E0AE
:101300009093850280938402089560E087E00E94B4
:10131000770260E080E00E94B5068DE991E00E94CE
:10132000BE0766EC71E087E495E00E9441091092E7
:1013300085021092840208950E946C096AEF70E0A1
:1013400080E090E00E94FB020E9485096AEF70E055
:1013500080E090E00C94FB02EF92FF920F931F93BA
:10136000CF93DF93EC017B01198218821B821A82D2
:101370001D821C82FB0101900020E9F731978F014B
:10138000061B170BB8010E941909811109C0CE0173
:10139000DF91CF911F910F91FF90EF900C942C074C
:1013A0001D830C83B70188819981DF91CF911F91B3
:1013B0000F91FF90EF900C94C61EEF92FF920F9347
:1013C0001F93CF93DF9300D0CDB7DEB78C0166ECCF
:1013D00071E00E94AC090E94DB0397FD1EC0898367
:1013E0001A82F801E480F580FFEFEF1AFF0AB701D7
:1013F000C8010E941909882371F3F8012081318105
:1014000084819581BE016F5F7F4F820F931F0E9481
:10141000C61EF801F582E482DECFC8010F900F905E
:10142000DF91CF911F910F91FF90EF90089585ED7F
:101430008093BC008091120390911303A091140338
:10144000B09115030796A11DB11D23E0B695A79590
:10145000979587952A95D1F72091BC0024FD03C06C
:10146000109210030895409112035091130360915C
:10147000140370911503452B462B472B69F30097F6
:10148000A105B10541F025E32A95F1F70000019788
:10149000A109B109E1CF809111030C9460041F925E
:1014A0000F920FB60F9211242F933F934F935F9398
:1014B0006F937F938F939F93AF93BF93EF93FF931C
:1014C0008DEA93E00E94BF01FF91EF91BF91AF9130
:1014D0009F918F917F916F915F914F913F912F914C
:1014E0000F900FBE0F901F9018951F920F920FB67E
:1014F0000F9211242F938F939F93EF93FF93E0917B
:10150000BD03F091BE038081E091C303F091C40359
:1015100082FD1BC090818091C6038F5F8F732091E5
:10152000C703821741F0E091C603F0E0E355FC4F9A
:10153000958F8093C603FF91EF919F918F912F918B
:101540000F900FBE0F901F9018958081F4CF1F92BF
:101550000F920FB60F9211242F933F938F939F9367
:10156000AF93BF938091A9039091AA03A091AB037D
:10157000B091AC033091780323E0230F2D3758F559
:101580000196A11DB11D209378038093A903909328
:10159000AA03A093AB03B093AC038091790390911D
:1015A0007A03A0917B03B0917C030196A11DB11D2C
:1015B0008093790390937A03A0937B03B0937C0389
:1015C000BF91AF919F918F913F912F910F900FBE3F
:1015D0000F901F90189526E8230F0296A11DB11DAC
:1015E000D2CF1F920F920FB60F9211242F933F93D9
:1015F0004F935F936F937F938F939F93AF93BF931B
:10160000EF93FF93E0918703F0918803309749F0BF
:10161000A685B7858585968D91FF14C09C918923F9
:10162000A1F4FF91EF91BF91AF919F918F917F9125
:101630006F915F914F913F912F910F900FBE0F903F
:101640001F9018959C91892361F7A389B4899C9177
:101650008589809589238C93868997890197F1F7ED
:10166000608D718DA685B785558538E020E0CB016A
:101670000197F1F7822F90E095958795282F4C914F
:10168000452309F02068315091F7868D81FD209522
:101690008091860390E001968F739927309185039E
:1016A000381799F0A0918603B0E0A85CBC4F2C934A
:1016B00080938603828D938D0197F1F7A389B48976
:1016C0008C919589892B8C93ACCF868D8160868F88
:1016D000F1CF1F920F920FB60F9211242F933F93C9
:1016E0004F935F936F937F938F939F93AF93BF932A
:1016F000EF93FF93E0918903F0918A030995FF919D
:10170000EF91BF91AF919F918F917F916F915F9179
:101710004F913F912F910F900FBE0F901F901895F2
:101720001F920F920FB60F9211242F933F934F9356
:101730005F936F937F938F939F93AF93BF93CF9359
:10174000DF93EF93FF932091570430E0F901EE58B7
:10175000FF4F8491F901E255FF4FD491F901E6560C
:10176000FF4FC491CC2379F081110E944E02EC2FDF
:10177000F0E0EE0FFF1FEA57FF4FA591B491EC91F7
:10178000ED2321E009F420E040915C0450915D04D8
:101790004F5F5F4F50935D0440935C0480915A0407
:1017A00090915B048536910530F031E03093280547
:1017B00033E0309356043091560431113BC021116F
:1017C00007C04436510518F510925D0410925C0470
:1017D00080915904882341F08091580421116DC0F3
:1017E00061E081116DC02D9AFF91EF91DF91CF9152
:1017F000BF91AF919F918F917F916F915F914F9129
:101800003F912F910F900FBE0F901F90189510923F
:10181000280581E090E090935B0480935A045093F4
:101820005F0440935E0410925D0410925C04809308
:101830005604CECF309156043130B1F4213041F608
:10184000BC016F5F7F4F70935B0460935A04880FF5
:10185000991FFC01E25AFB4F5183408310925D04B3
:1018600010925C0482E0E3CF309156043230E1F410
:10187000211114C0BC016F5F7F4F70935B046093B4
:101880005A04880F991FFC01E25AFB4F5183408391
:1018900010925D0410925C0481E0C9CF4536510579
:1018A00008F496CF83E0C3CF80915604833009F0CB
:1018B0008FCF222309F488CF8BCF882321F060E0DB
:1018C0000E94770291CF2D988FCF1F920F920FB663
:1018D0000F9211242F933F934F935F936F937F93B6
:1018E0008F939F93AF93BF93EF93FF938091B90032
:1018F000887F803609F44AC0F0F5883209F4A7C021
:1019000018F5803109F49BC0B8F4882309F4F9C0B4
:10191000883009F494C0FF91EF91BF91AF919F91EE
:101920008F917F916F915F914F913F912F910F9088
:101930000FBE0F901F901895883109F488C080322F
:1019400051F780930E0314C0803409F49DC040F415
:101950008033B9F38833F9F680930E0385ECB0C079
:10196000803509F485C0883509F496C0883499F625
:101970000E94170AD0CF883909F48CC038F588370F
:1019800029F050F4883611F0803729F683E08093EF
:1019900010031092E90257C0883809F47BC08039DF
:1019A00019F0803809F0B7CF8091E902803208F051
:1019B00071C0E091E90281E08E0F8093E90280918D
:1019C000BB00F0E0E753FD4F80833DC0803B39F022
:1019D000E0F4803A09F479C0883A09F09CCF84E0B9
:1019E000809310031092C8021092C702E0917F0307
:1019F000F091800309958091C70281110FC081E0A9
:101A00008093C7021092A70209C0803C09F4A6CFB8
:101A1000883C09F4A3CF883B09F07DCFE091C80250
:101A200081E08E0F8093C802F0E0E955FD4F808180
:101A30008093BB009091C8028091C70229C0809119
:101A4000EB028093BB0085EC8093BC0064CF909147
:101A50000D0380910C03981758F5E0910D0381E078
:101A60008E0F80930D03F0E0E451FD4F8081E9CFAC
:101A7000E0910D0381E08E0F80930D038091BB00F8
:101A8000F0E0E451FD4F808390910D0380910C03B1
:101A90009817C8F285E8D8CFE0910D0381E08E0F4A
:101AA00080930D038091BB00F0E0E451FD4F8083F3
:101AB00080910F0381115CCF81E08093EA0284EA78
:101AC0008093BC001092100326CF85EC8093BC005D
:101AD000109210038091E902803230F4E091E90223
:101AE000F0E0E753FD4F10826091E90270E0E09171
:101AF0007D03F0917E0389EC92E009951092E90252
:101B00000ACF10920E0334CF1092B0031092AF039D
:101B100088EE93E0A0E0B0E08093B1039093B2032D
:101B2000A093B303B093B40321E231E03093AE034A
:101B30002093AD0325EC30E03093BA032093B90332
:101B400024EC30E03093BC032093BB0320EC30E066
:101B50003093BE032093BD0321EC30E03093C003EB
:101B60002093BF0322EC30E03093C2032093C103E3
:101B700026EC30E03093C4032093C3031092C603D5
:101B80001092C7031092C8031092C90310924D041B
:101B900010924C0480934E0490934F04A0935004F1
:101BA000B093510423E331E030934B0420934A0473
:101BB0001092500510924F05809351059093520555
:101BC000A0935305B093540581E591E090934E05A1
:101BD00080934D051092640510926305109266057E
:101BE00010926505109268051092670510926A05BB
:101BF0001092690560916B056E7F6D7F60936B0538
:101C00006695617081E068270E94770261E081E05B
:101C10000E94A502EFEAF0E0E491E0935D05EBE9B4
:101C2000F0E0E491F0E0EE0FFF1FE057FF4F8591E9
:101C3000949190935F0580935E0560E080E00E9440
:101C4000A50280916B0581FD04C061E080E00E94E7
:101C5000770210925905EEEAF0E0E491E0935A051C
:101C6000EAE9F0E0E491F0E0EE0FFF1FEA57FF4FE2
:101C70008591949190935C0580935B0566EC71E08F
:101C800087E495E00E94AC0983E0809357041092AA
:101C9000590410922C0510922B0585E491E0909345
:101CA0002A058093290587E280932D0580E18093A2
:101CB000320582E080933305109234050895CF9366
:101CC000DF93CDB7DEB760970FB6F894DEBF0FBED7
:101CD000CDBF789484B5826084BD84B5816084BDB5
:101CE00085B5826085BD85B5816085BD80916E00BA
:101CF000816080936E0010928100809181008260EB
:101D00008093810080918100816080938100809127
:101D100080008160809380008091B1008460809316
:101D2000B1008091B00081608093B00080917A0012
:101D3000846080937A0080917A00826080937A0038
:101D400080917A00816080937A0080917A00806827
:101D500080937A001092C100109284031092830342
:101D600010928203109281030E9442048EE391E05C
:101D70009093800380937F038FE391E090937E03A1
:101D800080937D0310922E0580913305823018F0E8
:101D900098E090932E058093310562E370E080E037
:101DA00090E00E94FB026091340589E295E00E9478
:101DB000060568EE73E080E090E00E94FB0260E3BD
:101DC00089E295E00E9485060BE416E4C8010197BC
:101DD000F1F760E389E295E00E948506C80101976A
:101DE000F1F760E389E295E00E94850683E592E0E1
:101DF0000197F1F760E289E295E00E948506609123
:101E00002E05606240E089E295E00E949E0684E033
:101E100080932F0540E06CE089E295E00E949E06E9
:101E200040E061E089E295E00E949E060BE31FE13D
:101E3000C8010197F1F7E2E0FE2EF092300540E094
:101E400066E089E295E00E949E0640E062E089E259
:101E500095E00E949E06C8010197F1F788E0809303
:101E6000340560E089E295E00E94060561E087E0C4
:101E70000E94A502E091BD03F091BE03F082E091C3
:101E8000B903F091BA031082E091BB03F091BC0357
:101E90008FEC80831092C503E091C103F091C203DF
:101EA00086E08083E091BF03F091C0038081806170
:101EB0008083E091BF03F091C003808188608083BC
:101EC000E091BF03F091C003808180688083E0913E
:101ED000BF03F091C00380818F7D808387EC91E008
:101EE0000E94060910926805109267051092660517
:101EF0001092650510926405109263058DE991E0DA
:101F000090936A058093690590915905963108F080
:101F100047C02DEB30E030936405209363052BE937
:101F200031E030936605209365052CE231E0309373
:101F30006805209367052091680084E0983048F098
:101F400031E09E3008F430E081E001C0880F3A951E
:101F5000EAF7822B809368002DE630E0983050F04D
:101F60002BE630E09E3030F02CE630E0963110F079
:101F700030E020E03093610520936005292F30E0A8
:101F8000983008F0B6C181E001C0880F9A95EAF751
:101F9000809362058091690590916A050197F1F738
:101FA0008091670590916805892B49F1E09187033D
:101FB000F091880325E0ED34F20709F1309739F00C
:101FC000A389B4899C918589809589238C9380917C
:101FD0006B058E7F80936B051092860310928503AC
:101FE0008DE495E09093880380938703E0916005EA
:101FF000F0916105808190916205892B808361E079
:102000008DE00E94A502F89482E08093B000809356
:10201000B10094E69093B3001092B20080937000E8
:1020200078941092560460E0809157040E94A502B3
:1020300080E1809381001092800082E19AE7909382
:1020400087008093860084E18093810084E391E09F
:1020500090938A038093890381E080936F008AE0E4
:1020600090E09093A2038093A10388E190E0909385
:10207000A4038093A3031092A8031092A70381E006
:1020800090E090930801809307010E94850968EE13
:1020900073E080E090E00E94FB020E946C0968EE11
:1020A00073E080E090E00E94FB020E94850987EDCA
:1020B00091E00E9406098AE192E00E9406090E94CE
:1020C0008B0880915604833009F053C78EE594E065
:1020D0009093430580934205C0905A04D0905B04CE
:1020E000D0924505C092440581E090912805911158
:1020F00001C080E0809346051092380510923705A4
:10210000109241052090600430906104C10187580D
:1021100091098E35910508F01EC194E0C916D104CD
:1021200009F0F4C08091620490916304809747970E
:1021300008F011C180916404909165040997099792
:1021400008F009C110923E0510923D058FEF9FEFF8
:10215000DC018093390590933A05A0933B05B09339
:102160003C0581E0809341058BE090E0909336053B
:1021700080933505FF24F39482E1E5E3F5E0ADE8D3
:10218000B3E001900D928A95E1F7F110F0C6B0E24C
:10219000CB16D10409F4E1C073E0872E912CE0E660
:1021A000CE16D10409F4DCC082E1E5E3F5E0ADE848
:1021B000B3E001900D928A95E1F7F110D8C690E254
:1021C000C916D10408F45CC080919C0490919D04D0
:1021D0000397059708F054C080919A0490919B044E
:1021E0000897099708F04CC020915E0430915F0475
:1021F000A2E3B0E00E94951C6135734C8105910506
:102200000CF422C1E6E5F4E090E080E024AD35ADC9
:10221000283131050CF40DC12B3231058CF5880FB6
:10222000991F81603497B4E0E232FB0779F72DE023
:1022300030E030933E0520933D059C01207233270A
:1022400021503109309338052093370535E09695B4
:1022500087953A95E1F7B0E0A0E080933905909337
:102260003A05A0933B05B0933C0582E190E0909342
:1022700036058093350581E080930001FF24F394B7
:1022800082E1E5E3F5E0ADE8B3E001900D928A95D7
:10229000E1F7F1106CC69AE1C916D10408F42BC11C
:1022A00020915E0430915F0442E3429FC001439F4E
:1022B000900D1124843F914008F0E6C010923E0535
:1022C00010923D058FEF9FEFDC01809339059093CD
:1022D0003A05A0933B05B0933C0581E0809341050E
:1022E000AFEFBFEFB0933605A0933505FF24F3940D
:1022F00002C19E3040F42850310981E001C0880FAE
:102300002A95EAF745CE2E503109F7CF94E4C91645
:10231000D10408F180916204909163048154910981
:102320008F97C8F400E312E02AE936E040E352E078
:1023300063E080E20E94F005A0E2B0E0B0933E05C9
:10234000A0933D056093390570933A0580933B0552
:1023500090933C0509CFF12C0FCF88248394912CC6
:10236000C1010397059708F01FCF809162049091F7
:102370006304893191050CF454C08C970CF014CF90
:10238000EE24E394412C512C3201B12CA12C0BE111
:1023900013E02DE037E04AEF50E06E2D85E00E941B
:1023A000F0056D877E878F87988B2DE037E04AEFA9
:1023B00050E065E06E0D88E00E94F0054114510484
:1023C0006104710431F0641575058605970509F0FF
:1023D000EBCE2B013C014094FFEFAF1ABF0A26E081
:1023E000E20E8A149B0499F62FE030E030933E050C
:1023F00020933D056093390570933A0580933B0522
:1024000090933C058D859E85909338058093370584
:1024100081E190E09093360580933505FF24F39495
:10242000C3CE8A3091050CF4BFCE43970CF4A8CFED
:10243000BBCE283031050CF423CF213131050CF00F
:102440001FCF880F991FEECE80910001811119C016
:1024500010923E0510923D058FEF9FEFDC018093B7
:10246000390590933A05A0933B05B0933C0581E074
:102470008093410581E190E0909336058093350586
:10248000FDCE10920001FCCEC10185974B9798F5C7
:10249000E6E5F4E082E090E040E050E0BA019C0123
:1024A0002F5F3F4F2C153D05C8F4248535852750F7
:1024B00031092730310590F42685378523313105E0
:1024C00014F40C94E11B22323105ACF4440F551F77
:1024D000661F771F416002963496E1CF019796956B
:1024E000879590933E0580933D050C97E0F51092FB
:1024F0003E0510923D0582E1E5E3F5E0ADE8B3E08D
:1025000001900D928A95E1F7F11031C5BAE1CB1631
:10251000D10408F480C020915E0430915F0442E34E
:10252000429FC001439F900D11248032934050F58B
:1025300010923E0510923D058FEF9FEFDC018093D6
:10254000390590933A05A0933B05B0933C0581E093
:102550008093410580E190E09093360580933505A6
:10256000FF24F39458C04093390550933A05609383
:102570003B0570933C0583E190E090933605809392
:102580003505B4CEC101C597879708F044C0809146
:10259000620490916304C5978797E8F5E6E5F4E057
:1025A00083E090E040E050E0BA019C012F5F3F4F94
:1025B0002C153D0510F5268537852C5031092B301B
:1025C0003105D8F420893189253231055CF0203479
:1025D00031050CF5440F551F661F771F41600296A9
:1025E0003496E3CF2B303105B4F0263131059CF41D
:1025F000440F551F661F771FF2CF01979695879559
:1026000090933E0580933D050C9708F0C6C010924C
:102610003E0510923D0582E1E5E3F5E0ADE8B3E06B
:1026200001900D928A95E1F7F110A1C492E2C916CA
:10263000D10408F447C0A6E02A1A3108B7E02B16E7
:10264000310408F03FC0E6E5AE2EE4E0BE2E43E0E4
:1026500050E080E090E0DC019A01215031094C15F6
:102660005D0500F58501F501248535852E3131059F
:102670000CF49EC0253331052CF5880F991FAA1F35
:10268000BB1F8160BA016E5F7F4FF4E0AF0EB11CDB
:10269000F80126853785235031092530310508F4A6
:1026A00085C09A01215031093695279530933E0512
:1026B00020933D052031310508F087C010923E057A
:1026C00010923D0582E1E5E3F5E0ADE8B3E001906D
:1026D0000D928A95E1F7F1104AC418861F8221E015
:1026E00030E03A8329833DE0C316D10408F49BC04F
:1026F00049E753E0BE01695F7F4FCE0101960E941A
:102700008D00892B09F08FC049E753E0BE01695F56
:102710007F4FCE0101960E948D00019709F083C082
:1027200049E753E0BE01695F7F4FCE0101960E94E9
:102730008D008C01892B09F076C0812C912C5401DD
:10274000209144053091450589819A81821793072C
:1027500008F055C049E753E0BE01695F7F4FCE01E5
:1027600001960E948D006C0149E753E0BE01695F4C
:102770007F4FCE0101960E948D00A1E0CA16D104C0
:10278000A9F5892B09F04FC0880C991CAA1CBB1C09
:10279000689480F80F5F1F4FD3CF40933905509353
:1027A0003A0560933B0570933C05D4CEAB0154CF02
:1027B0002C3031050CF486CF273131050CF082CF57
:1027C000880F991FAA1FBB1F5DCF80933905909377
:1027D0003A05A0933B05B0933C0589E090E09093C7
:1027E000360580933505FF24F3946CCFCD28D9F4BA
:1027F0000197C9F4880C991CAA1CBB1CCBCF109361
:102800003E0500933D058092390590923A05A092CD
:102810003B05B0923C058DE090E0909336058093A7
:102820003505FF24F39482E1E5E3F5E0ADE8B3E09C
:1028300001900D928A95E1F7F11099C318861F82D5
:10284000E1E0F0E0FA83E983809144059091450549
:10285000892B09F480C0E0914205F0914305828103
:10286000938189974E9708F076C022E030E03A8352
:102870002983848195810B970A9708F06CC083E0C7
:1028800090E09A8389834CEB51E0BE01695F7F4FF2
:10289000CE0101960E948D006C01892B09F05BC06E
:1028A0004CEB51E0BE01695F7F4FCE0101960E9463
:1028B0008D00019709F04FC0412C512C320120911D
:1028C00044053091450589819A818217930708F064
:1028D0009BC24CEB51E0BE01695F7F4FCE01019678
:1028E0000E948D008C0133E0C316D10441F14CEB02
:1028F00051E0BE01695F7F4FCE0101960E948D00BD
:102900005C0183E0C816D10461F44CEB51E0BE01D8
:10291000695F7F4FCE0101960E948D00A816B9060F
:10292000D1F40115110509F461C20130110599F4C2
:10293000AB2889F4440C551C661C771C61C24CEB17
:1029400051E0BE01695F7F4FCE0101960E948D006C
:102950000817190761F282E1E5E3F5E0ADE8B3E0BD
:1029600001900D928A95E1F7F11001C3C0904205E4
:10297000D0904305F60182819381C597879790F5A2
:10298000848195814B97459768F500E911E02CED1E
:1029900034E046EF51E063E080E10E94F0054B0136
:1029A0002CED34E046EF51E063E180E20E94F00557
:1029B0006093390570933A0580933B0590933C05ED
:1029C00090923805809237058CE090E09093360520
:1029D0008093350580E390E090933E0580933D051C
:1029E000FF24F39482E1E5E3F5E0ADE8B3E0019084
:1029F0000D928A95E1F7F110BAC260905A04709076
:102A00005B04F9E36F167104C0F1D60112968D9143
:102A10009C9113978E5791098835910570F51496FE
:102A20008D919C91CD978B9740F506E212E020E4C2
:102A300036E048E552E063E08CE10E94F005F601E3
:102A4000268137812A50310929303105B0F42CE133
:102A500030E030933E0520933D0560933905709337
:102A60003A0580933B0590933C0587E090E0909376
:102A7000360580933505FF24F39482E1E5E3F5E024
:102A8000ADE8B3E001900D928A95E1F7F1106FC2C5
:102A9000A0904405B0904505D60112968D919C9169
:102AA000B2E2AB16B10409F0C4C19C012A5031094D
:102AB0002930310508F0BDC1F601EE5BFF4F2081E2
:102AC00031812A5031092930310508F0B2C1109204
:102AD0003E0510923D058FEF9FEFDC018093390595
:102AE00090933A05A0933B05B0933C0581E0809319
:102AF000410585E090E09093360580933505FF24ED
:102B0000F39482E1E5E3F5E0ADE8B3E001900D92E6
:102B10008A95E1F7F1102BC2D60112968D919C9106
:102B200084549109C19750F5B4E06B16710409F013
:102B3000B5C1F6018481958180974797F8F4868125
:102B4000978109970997D0F410923E0510923D05A0
:102B50008FEF9FEFDC018093390590933A05A093A6
:102B60003B05B0933C0581E0809341058FE090E008
:102B70009093360580933505FF24F39482E1E5E3D5
:102B8000F5E0ADE8B3E001900D928A95E1F7F11020
:102B9000EEC1F6E4AF16B10408F444C0D6011296B3
:102BA0008D919C9113970C970B97E0F514968D914E
:102BB0009C91159709970997A8F516968D919C9168
:102BC00017978C974F9770F518968D919C918997D0
:102BD0004D9740F50EEE12E026E638E04EEE52E05C
:102BE00065E080E20E94F005F601228533852C50D5
:102BF00031092B303105B0F420E230E030933E054E
:102C000020933D056093390570933A0580933B0509
:102C100090933C0584E190E09093360580933505D0
:102C2000FF24F39482E1E5E3F5E0ADE8B3E0019041
:102C30000D928A95E1F7F1109AC138E5A316B10417
:102C400008F456C0D60112968D919C911397845822
:102C500091098C35910508F04BC014968D919C918B
:102C6000815491098F9708F043C0F6014DE150E07F
:102C700090E080E0D50114974A175B0708F03FC148
:102C800022AD33AD285031092930310588F59A013C
:102C90002F5F3F4F64AD75AD6730710554F06E30F6
:102CA00071050CF422C1675171096331710508F493
:102CB00023C1215031093695279530933E05209345
:102CC0003D052A323105A0F0092E000CAA0BBB0BE2
:102CD0008093390590933A05A0933B05B0933C054A
:102CE000E1E0F0E0F0933605E0933505FF24F3943E
:102CF00082E1E5E3F5E0ADE8B3E001900D928A955D
:102D0000E1F7F11034C1F0E26F16710471F5D601EC
:102D100012968D919C9113970597079730F514960D
:102D20008D919C910997099700F50EEE12E028E02D
:102D300037E04CE251E063E08EE00E94F0052EE0C7
:102D400030E030933E0520933D0560933905709344
:102D50003A0580933B0590933C0583E090E0909387
:102D6000360580933505FF24F39482E1E5E3F5E031
:102D7000ADE8B3E001900D928A95E1F7F110F7C04C
:102D8000B6E0AB16B10408F4E9C0F601329625ECC2
:102D90003DE94CE151E873E0C72ED12CAAE0FA2EB0
:102DA0008481958101911191F89E3001F99E700CFA
:102DB0001124D80163E0AA0FBB1F6A95E1F76A16D8
:102DC0007B0608F49EC0F09EB001F19E700D1124A8
:102DD000A3E0880F991FAA95E1F702E010E06817B9
:102DE000790708F490C001E010E08DC0AA94AB28E8
:102DF00009F0B1CD440C551C661C771C689440F852
:102E0000AFEFCA1ADA0A5BCDD0923E05C0923D05FB
:102E10004092390550923A0560923B0570923C050C
:102E20008EE090E09093360580933505FF24F3946F
:102E300092CD8E5791098835910508F062CE91E2C6
:102E4000A916B10408F45DCED60114968D919C911B
:102E5000CD978B9708F055CE06E212E020E436E0DD
:102E600048E552E063E080E10E94F005F60126812A
:102E700037812A5031092930310508F042CE20E14E
:102E800030E030933E0520933D0560933905709303
:102E90003A0580933B0590933C052BCE94E469164C
:102EA000710408F46BCED60114968D919C918154D7
:102EB00091098F9708F062CE00E312E020E436E03B
:102EC00040E352E063E080E20E94F005E0E2F0E0DF
:102ED000F0933E05E0933D056093390570933A0504
:102EE00080933B0590933C0541CE880F991F8160EC
:102EF0004E5F5F4F3496C0CE880F991FF9CF9A016D
:102F0000D8CE10E000E063E971E080E091E00E943B
:102F1000211C012E000C220B330BA901980126273E
:102F20003727482759278FEFC81AD80ACA14DB0455
:102F300009F036CF2093390530933A0540933B058D
:102F400050933C05A0E2B0E0B0933E05A0933D0550
:102F5000EFEFFFEFF0933605E093350582E1E5E30F
:102F6000F5E0ADE8B3E001900D928A95E1F710929B
:102F700056048DE495E00E94A203892BC1F0CE0196
:102F800001960E94DD09CE0101960E94EF06CE0156
:102F900001960E943E0740914B0550914C0560916F
:102FA0004705709148058DEA93E00E94410162E374
:102FB00070E080E090E00E94FB0262E370E080E05D
:102FC00090E00E94FB0264E372E0CE0101960E9451
:102FD000AC09CE0101960E944607182FCE0101963A
:102FE0000E943E07112309F4FFC083E090E00E9495
:102FF0001F01082E000C990BC09790930801809335
:10300000070185E090E00E941F01182F86E090E004
:103010000E941F01412F110F550B405351090AE027
:10302000049F9001059F300D1124082E000C990B70
:10303000C097820F931F9093A2038093A10388E00F
:1030400090E00E941F01182F89E090E00E941F016C
:10305000412F110F550B40535109049F9001059FBB
:10306000300D1124082E000C990BC097820F931F6E
:103070009093A4038093A3038BE090E00E941F0130
:10308000182F8CE090E00E941F01412F110F550B6B
:1030900040535109049F9001059F300D1124082EC3
:1030A000000C990BC097820F931F9093A8038093F5
:1030B000A7030E948B0866EC71E087E495E00E940C
:1030C00041098091910390919203A0919303B09153
:1030D00094038D3DE2E29E07EFEFAE07B10509F0E4
:1030E00040C261E089E00E94B50689E692E00E9454
:1030F000BE070E948B0821E030E030938C032093C0
:103100008B0380918B0390918C038230910530F07A
:103110008230910509F04FC30E945D082091A703FA
:103120003091A8038091A5039091A6032817390731
:1031300019F52091A3033091A40380910D01909182
:103140000E0128173907C1F420910B0130910C01B1
:103150008091A1039091A2032817390769F4209167
:10316000090130910A018091070190910801281707
:10317000390711F40E946C092091A7033091A8032C
:1031800080919F039091A0032817390711F00C94A8
:103190005F102091A3033091A403809105019091C9
:1031A00006012817390711F00C945F1020910301D4
:1031B000309104018091A1039091A203281739074F
:1031C00011F00C945F102091010130910201809167
:1031D0000701909108012817390711F00C945F102E
:1031E0000E9485090C945F1067E372E0CE0101969E
:1031F0000E94AC09CE0101960E944607182FCE010D
:1032000001960E943E07112309F45AC083E090E022
:103210000E941F01082E000C990BC09790930A0181
:103220008093090185E090E00E941F01182F86E03D
:1032300090E00E941F01412F110F550B405351097F
:103240000AE0049F9001059F300D1124082E000C08
:10325000990BC097820F931F90930C0180930B01E1
:1032600088E090E00E941F01182F89E090E00E9402
:103270001F01412F110F550B40535109049F90011D
:10328000059F300D1124082E000C990BC097820F5A
:10329000931F90930E0180930D010E945D0860E0E2
:1032A00080E00E94B5068AE392E00E94BE0760EDCE
:1032B00077E080E090E00E94FB020E94F208FBCEE3
:1032C00069E472E0CE0101960E94AC09CE0101963C
:1032D0000E944607182FCE0101960E943E07112337
:1032E00009F450C084E090E00E941F01082E000CF9
:1032F000990BC097909302018093010186E090E0C2
:103300000E941F01182F87E090E00E941F01412FAB
:10331000110F550B405351090AE0049F9001059F7E
:10332000300D1124082E000C990BC097820F931FAB
:10333000909304018093030189E090E00E941F01B3
:10334000182F8AE090E00E941F01412F110F550BAA
:1033500040535109049F9001059F300D1124082E00
:10336000000C990BC097820F931F909306018093D6
:1033700005010E942F0860E080E00E94B5068DE400
:1033800092E093CF80914B0590914C05892B01F1F0
:1033900000914705109148056FE571E0C8010E9452
:1033A000BD1E892B39F460E08DE00E9477020E94F7
:1033B000850981CE6DE572E0C8010E94BD1E892B92
:1033C00039F461E08DE00E9477020E946C0973CEAF
:1033D0006FE572E0CE0101960E94AC09CE01019624
:1033E0000E944607182FCE0101960E943E07112326
:1033F000C9F185E090E00E941F01082F880F110B92
:103400006801F0E3CF1AD1080D2C000CEE08FF087C
:103410000033110509F455CE2AE0B701A601F7FEE5
:103420000DC06DE28DEA93E00E94E101442755272B
:10343000BA014C195D096E097F092AE08DEA93E013
:103440000E94720764EC71E08DEA93E00E946307CA
:103450000E949C090150110921E0C21AD108E1081B
:10346000F108D6CF65E672E0CE0101960E94AC0964
:10347000CE0101960E944607182FCE0101960E94A8
:103480003E07112309F41DCEE0904B05F0904C054A
:1034900083E0C82ED12C33E0E316F10420F067015D
:1034A00093E0E92EF12C66EC71E0CE0107960E94C4
:1034B000AC0900914B0510914C05E016F10608F59A
:1034C000C016D10608F48601E0914705F091480541
:1034D000E00FF11FD0801082609147057091480580
:1034E0006E0D7F1DCE01079661157105A1F10E9439
:1034F00041098091470590914805080F191FD8018F
:10350000DC920E948509CE0101960E94DD09CE0160
:1035100001960E94EF06CE0101960E943E0720917F
:103520004B0530914C058B859C852817390749F749
:1035300080914705909148056F817885009709F43F
:103540004BC16115710551F4232B09F453C1DC0102
:103550008C9190E04CC10E942C07CBCF0E94BD1EE5
:1035600046C18F3C30E393073FEFA307B105B1F4A9
:1035700080918B0390918C038130910509F066C096
:103580008091A1039091A203019668E170E00E94EE
:10359000A41C9093A2038093A1031BC0873EE8E183
:1035A0009E07EFEFAE07B10521F580918B03909157
:1035B0008C038130910509F05BC08091A303909149
:1035C000A40301968C3391057CF49093A40380931B
:1035D000A3030E948B081092910310929203109201
:1035E0009303109294038DCD1092A4031092A30321
:1035F000C7CF8538FAE79F07FFEFAF07B10569F43A
:1036000080918B0390918C038130910509F042C029
:103610001092A8031092A703DCCF8D3322EC9207FF
:103620002FEFA207B10509F047C061E089E00E94D1
:10363000B50681E792E00E94BE070E945D0882E025
:1036400090E090938C0380938B035BCD8230910547
:1036500009F047C080910B0190910C01019668E13F
:1036600070E00E94A41C90930C0180930B01B3CFD7
:103670008230910509F046C080910D0190910E01B4
:1036800001966CE370E00E94A41C90930E0180935D
:103690000D01A1CF8230910509F045C08091A503AD
:1036A0009091A60301966CE370E00E94A41C909395
:1036B000A6038093A5038FCF8D3FE2E09E07EFEF37
:1036C000AE07B10509F040C061E089E00E94B5068F
:1036D0008AE792E00E94BE070E942F0883E090E0F4
:1036E000B0CF039709F00DCD8091030190910401B3
:1036F000019668E170E00E94A41C909304018093FD
:10370000030169CF039709F0FCCC809105019091EA
:10371000060101966CE370E00E94A41C90930601E0
:103720008093050158CF039709F0EBCC80919F035C
:103730009091A00301969093A00380939F038091A2
:10374000A5039091A603AFCF8D39F2E69F07FFEF57
:10375000AF07B105B9F40E946C0961E089E00E94ED
:10376000B50689EB91E00E94BE071092910310927A
:103770009203109293031092940310928C03109270
:103780008B03BFCC8D3122EE92072FEFA207B1053C
:1037900049F40E94850961E089E00E94B50688EB42
:1037A00091E0E1CF8F3E9041AF4FB10509F0A9CC38
:1037B0000E949C09A6CC039709F0B0CC0E942F0868
:1037C000ADCC2A30310514F40C947B12440F551FF4
:1037D000661F771F0C946B126115710559F0232B2E
:1037E00049F0FB01808190E0919581959109892BA9
:1037F00009F087CE0E946C09CE0107960E943E0711
:1038000060CC87E495E00E943E0781E591E09093CB
:103810004E0580934D0580918703909188038D54C8
:10382000954071F4E0916005F0916105908180917F
:103830006205809589238083109288031092870304
:103840000895DB018F939F930E94531CBF91AF910A
:10385000A29F800D911DA39F900DB29F900D1124EA
:103860000895A1E21A2EAA1BBB1BFD010DC0AA1FC1
:10387000BB1FEE1FFF1FA217B307E407F50720F0D9
:10388000A21BB30BE40BF50B661F771F881F991F54
:103890001A9469F760957095809590959B01AC019D
:1038A000BD01CF0108950E94951CA59F900DB49F66
:1038B000900DA49F800D911D112408952F923F9289
:1038C0004F925F926F927F928F929F92AF92BF9230
:1038D000CF92DF92EF92FF920F931F93CF93DF93DC
:1038E000CDB7DEB7CA1BDB0B0FB6F894DEBF0FBE39
:1038F000CDBF09942A88398848885F846E847D8486
:103900008C849B84AA84B984C884DF80EE80FD8087
:103910000C811B81AA81B981CE0FD11D0FB6F894FD
:10392000DEBF0FBECDBFED010895A29FB001B39FD2
:10393000C001A39F700D811D1124911DB29F700DB8
:10394000811D1124911D089597FB072E16F40094F4
:1039500007D077FD09D00E94BE1C07FC05D03EF4BD
:10396000909581959F4F0895709561957F4F08952B
:10397000EE0FFF1F0590F491E02D0994AA1BBB1BCD
:1039800051E107C0AA1FBB1FA617B70710F0A61B5F
:10399000B70B881F991F5A95A9F780959095BC0180
:1039A000CD0108950F931F93CF93DF93823091053C
:1039B00010F482E090E0E0916E05F0916F0530E048
:1039C00020E0B0E0A0E0309799F42115310509F42A
:1039D0004AC0281B390B24303105D8F58A819B81D8
:1039E0006115710589F1FB0193838283FE0111C08A
:1039F000408151810281138148175907E0F048172F
:103A0000590799F4109761F012960C931297139638
:103A10001C933296CF01DF91CF911F910F910895A2
:103A200000936E0510936F05F4CF2115310551F009
:103A30004217530738F0A901DB019A01BD01DF01EC
:103A4000F801C1CFEF01F9CF90936F0580936E0518
:103A5000CDCFFE01E20FF31F8193919322503109E4
:103A600039832883D7CF20916C0530916D05232BA6
:103A700041F4209111013091120130936D05209392
:103A80006C0520910F01309110012115310541F491
:103A90002DB73EB74091130150911401241B350BF3
:103AA000E0916C05F0916D05E217F307A0F42E1B71
:103AB0003F0B2817390778F0AC014E5F5F4F241792
:103AC000350748F04E0F5F1F50936D0540936C050E
:103AD000819391939FCFF0E0E0E09CCFCF93DF9371
:103AE0000097E9F0FC01329713821282A0916E05D3
:103AF000B0916F05ED0130E020E01097A1F4208136
:103B00003181820F931F20916C0530916D0528172C
:103B1000390709F061C0F0936D05E0936C05DF9102
:103B2000CF910895EA01CE17DF07E8F54A815B815E
:103B30009E0141155105B1F7E901FB83EA834991E3
:103B40005991C40FD51FEC17FD0761F48081918155
:103B50000296840F951FE90199838883828193815E
:103B60009B838A83F0E0E0E012968D919C911397FD
:103B70000097B9F52D913C911197CD010296820FD6
:103B8000931F20916C0530916D052817390739F680
:103B9000309751F510926F0510926E05B0936D0538
:103BA000A0936C05BCCFD383C28340815181840F25
:103BB000951FC817D90761F44E5F5F4F88819981BF
:103BC000480F591F518340838A819B81938382834D
:103BD0002115310509F0B0CFF0936F05E0936E0524
:103BE0009ECFFD01DC01C0CF13821282D7CFB0E09F
:103BF000A0E0EDEFFDE10C94601C8C01009751F406
:103C0000CB010E94D21C8C01C801CDB7DEB7E0E128
:103C10000C947C1CFC01E60FF71F9C01225031091B
:103C2000E217F30708F49DC0D901CD91DC911197FB
:103C3000C617D70798F0C530D10530F3CE010497E9
:103C40008617970708F3C61BD70B2297C193D1930A
:103C50006D937C93CF010E946E1DD6CF5B01AC1A91
:103C6000BD0A4C018C0E9D1EA0916E05B0916F0592
:103C7000512C412CF12CE12C109731F580916C05E1
:103C800090916D058815990509F05CC04616570698
:103C900008F058C080910F0190911001009741F4F5
:103CA0008DB79EB74091130150911401841B950B61
:103CB000E817F90708F055C0F0936D05E0936C051F
:103CC000F90171836083A0CF8D919C911197129619
:103CD0006C90129713967C901397A815B90559F517
:103CE0006C0142E0C40ED11CCA14DB0420F1AC010B
:103CF0004A195B09DA011296159780F06282738285
:103D000051834083D9016D937C93E114F10471F0E8
:103D1000D7011396FC93EE93129776CF22968C0FD1
:103D20009D1FF90191838083F301EFCFF0936F051D
:103D3000E0936E0569CF4816590608F42C017D0101
:103D4000D3019ACFCB010E94D21C7C01009749F08D
:103D5000AE01B8010E94B41EC8010E946E1D870109
:103D600053CF10E000E050CFFB01DC0102C0019016
:103D70000D9241505040D8F70895FB01DC018D9120
:103D8000019080190110D9F3990B0895FB01DC0112
:103D900001900D920020E1F70895FB01DC014150F4
:103DA000504030F08D910190801919F40020B9F73E
:103DB000881B990B089510E0C2E6D0E004C0FE0114
:103DC0000E94B81C2196C336D107C9F7F894FFCFDB
:103DD0000108000A001A00010008000A001900008A
:103DE0000070058000000040001400540000000036
:103DF00000E10141016E012E029F017D0191010050
:103E0000000000D704AA04ED054503A30490048133
:103E10000400000000E9064101ED0540010000003A
:103E20000046034101ED054503A203BA032D03300B
:103E3000004D6F6E2E202000547565732E202000DB
:103E40005765642E202000546875722E202000468D
:103E500072692E2020005361742E20200053756E4D
:103E60002E2020004572726F7221003A004C4544AA
:103E70003A204F46462020202020202020202000CD
:103E80004C45443A204F4E20202020202020202046
:103E9000202020000D0A0042544C45442069732024
:103EA00072656164792100636F6D6D616E64207469
:103EB0006970733A20535428736574206E6F7720AD
:103EC00074696D65292C204F4E28736574204F4E00
:103ED0002074696D65292C204F464628736574202F
:103EE0004F46462074696D652900696E70757420AF
:103EF0006578616D706C653A204F4E203720323303
:103F0000203539005354004F4E004C6564206C69D5
:103F10006768742074696D65004F4646004C65649F
:103F2000207175656E63682074696D6500310042AB
:103F30006C696E6B006B65790053657454696D65CF
:103F4000005365745F4F4E5F54005365745F4F4676
:043F5000465F540074
:00000001FF
